:020000040800F2
:1000000000040020D7010008710E0008110D00083F
:100010006D0E000895040008D51A000800000000C5
:1000200000000000000000000000000001140008B3
:10003000490A000800000000E50E0008A1140008AD
:10004000F7010008F7010008F7010008E9100008AF
:10005000F7010008F7010008F7010008F7010008A0
:10006000810A0008F7010008F7010008F7010008FD
:10007000F7010008F7010008F7010008F701000880
:10008000F7010008F7010008F7010008F701000870
:100090003D1A0008F7010008F7010008F701000801
:1000A000F7010008F7010008F7010008F701000850
:1000B000A5140008DD14000879150008F7010008F0
:1000C000F7010008F7010008F7010008F701000830
:1000D000F7010008011900084D190008F701000890
:1000E000F7010008F7010008F7010008F701000810
:1000F000F7010008F7010008F7010008F701000800
:10010000F7010008F7010008F7010008F7010008EF
:10011000F7010008F7010008F7010008F7010008DF
:10012000F7010008F7010008F7010008F7010008CF
:1001300000F002F800F03FF80AA090E8000C8244BA
:100140008344AAF10107DA4501D100F034F8AFF297
:10015000090EBAE80F0013F0010F18BFFB1A43F0A5
:10016000010318476424000084240000103A24BFCF
:1001700078C878C1FAD8520724BF30C830C144BF0C
:1001800004680C607047000000230024002500264E
:10019000103A28BF78C1FBD8520728BF30C148BFEA
:1001A0000B607047642900F07B80002070471FB50A
:1001B0001FBD10B510BD00F03BF91146FFF7F7FF6A
:1001C00001F086FD00F059F903B4FFF7F2FF03BC1C
:1001D00001F0B2FC70470B4880470B4981F3088857
:1001E0000A480047FEE7FEE7FEE7FEE7FEE7FEE718
:1001F000FEE7FEE7FEE7FEE705480649044A064B30
:1002000070470000D5010008A0A4002031010008BB
:10021000A0A20020A0A40020A0A2002070470000FF
:100220000FB4044910B503AA029800F0D3F810BC2B
:100230005DF814FBE00000202DE9F0410E46044675
:10024000002020622046E168884730B3252805D089
:10025000D4E901219047206A401CF2E7E16820467A
:1002600000278847050018D0A5F14100192802D8B9
:1002700020354FF400673246294620462760FFF7B5
:1002800091FF40B1012804D0F61D26F0070608367C
:10029000D8E7361DD6E72846DAE7206ABDE8F081C0
:1002A0002DE9F0410646002410687529314616A54F
:1002B00010D0AFF30080002802DA404213A507E017
:1002C00031688A0701D512A502E0490704D511A5B6
:1002D000012401E0AFF3008000210A2206F1240787
:1002E00009E0B0FBF2FCB0FBF2F302FB1C00303083
:1002F00078541846491C0028F3D123462A46304634
:10030000BDE8F04100F00CB8000000002D00000036
:100310002B000000200000007047704770477047B6
:100320002DE9F0470D4699469246044600F124080F
:100330000168880604D5E06921F01001216000E021
:100340000120A84201DD471B00E00027A1697A19BE
:1003500002EB0900081AA0612078C00602D42046EA
:10036000AFF30080002608E0D4E901211AF8060066
:100370009047206A401C761C20624E45F4DB2078B2
:10038000C0060AD52046AFF3008006E0D4E901217B
:1003900030209047206A401C2062381EA7F10107D8
:1003A000F4DC07E0D4E9012118F805009047206A41
:1003B000401C2062281EA5F10105F3DC2046AFF3A6
:1003C00000802078000602D50220BDE8F0870120D9
:1003D000FBE70000074B70B50D467B4400F011F8B9
:1003E0000446284600F020F810B14FF0FF3070BDF1
:1003F000204670BD7B17000001694A1C0261087825
:10040000704700B58FB0CDE9013100210591054954
:100410007944CDE9031011466846FFF70DFF0FB090
:1004200000BD0000E5FFFFFF007B00F0800070478B
:10043000754600F02BF8AE4605006946534620F09D
:100440000700854618B020B5FFF7D6FEBDE820406E
:100450004FF000064FF000074FF000084FF0000B80
:1004600021F00701AC46ACE8C009ACE8C009ACE833
:10047000C009ACE8C0098D46704710B50446AFF31B
:1004800000802046BDE81040FFF79EBE0048704740
:100490003CA2002000BFFEE72DE9FC475B48007846
:1004A000012836D15A4880795A49C8725848C179CA
:1004B000584801735648017856484173544841786A
:1004C00054488173524881785248C1735248008819
:1004D000010A50480174504801784E484174552132
:1004E000817401464D4800F007FA01F029FB4C48A1
:1004F0000078052805D04A480078401C4849087013
:1005000007E000204649087040490870022045492C
:100510000870454800780E284FD14449C87801F04A
:1005200028FD02464149887801F023FD02EB0010C6
:1005300000F0FF083D49487901F01BFD02463B49A8
:10054000087901F016FD02EB001000F0FF093749B1
:10055000C87901F00EFD02463449887901F009FDA1
:1005600002EB0010C7B23149487A01F002FD0246A1
:100570002E49087A01F0FDFC02EB0010C5B22B49B0
:10058000C87A01F0F6FC02462849887A01F0F1FCAD
:1005900002EB0010C6B23B464A46414640F2E170CB
:1005A000CDE9005600F06CFE00201F4908700120C4
:1005B000164908701B4908701FE01A480078012886
:1005C0001BD018480078022817D016480078032856
:1005D00013D017480078401C154908700846007869
:1005E0000A280AD100200870002404E0FF2001F04E
:1005F00073FA601CC4B20D2CF8DB0A48007802289C
:1006000002D1032007490870BDE8FC874C00002098
:1006100032A2002014000020A0000020006400404E
:10062000500000204F000020DC00002056A10020D8
:10063000510000202DE9F04704460D4617461E469E
:10064000DDF820904FF0000814B10DB107B116B9D4
:100650000120BDE8F087601EC4B2681EC5B2781ED6
:10066000C7B2701E86B26448806940F004006249D7
:1006700088616248006820F47F206049086008466D
:10068000006840F4382008605C480830006840F496
:10069000C0505A49083108605748C06940F000709E
:1006A0005549C8610020564908600846006840F076
:1006B0000100086008E008F101001FFA80F8B8F1B5
:1006C000640F01DD0220C4E74D48001D006800F002
:1006D00001000028EFD04A480068494908600846F0
:1006E000006808600846006808600846006840F036
:1006F0001000086008460068086008460068086046
:1007000000203F491C3108600846006840EA8970B3
:1007100008600846006840EA04600860084600680F
:1007200040EA055008600846006840EA0740086053
:1007300008460068304308603148006820F0010036
:100740002F49086009E008F101001FFA80F84FF610
:10075000F070804501DD03207BE72948001D00681B
:1007600000F001000028EED12648006840F00100AA
:100770002449086023481C30006820F0010021490A
:100780001C3108601F480C30006840F001001D4912
:100790000C3108601B48001D00681A49091D0860DB
:1007A00018481430006817491431086000201549B2
:1007B00040310860002113484430016011481C306A
:1007C000006840F001000F491C3108600D480068C6
:1007D00000200C4908600A481430006840F002000C
:1007E000074914310860022314220021012000F07F
:1007F000E3FA00202DE70000001002400408014049
:10080000006400400066004010B500F5D87303EBAB
:1008100001131B6803F004031372137A53B900F534
:10082000D87303EB01131B6840F2FF7404EA5353BF
:10083000136009E000F5D87303EB01131B686FF038
:10084000604404EAD303536000F5D87303EB01134B
:100850001B6803F00203537200F5D87303EB011316
:100860005B6803F00F03937200F5D87303EB011379
:100870005B681B0AD37400F5D87303EB01139B6804
:10088000D37200F5D87303EB01139B681C0A147331
:1008900000F5D87303EB01139B681C0C547300F52F
:1008A000D87303EB01139B681B0E937300F5D87389
:1008B00003EB0113DB68D37300F5D87303EB01136B
:1008C000DB681C0A147400F5D87303EB0113DB68B2
:1008D0001C0C547400F5D87303EB0113DB681B0E7A
:1008E000937421B9C36843F02003C36003E0036934
:1008F00043F02003036110BD2DE9F04105460E468B
:100900000024002700BF3146284600F00AF80746B9
:10091000601CC4B2042F01D1FE2CF4DB0024BDE81E
:10092000F08110B502460020936803F08063B3F1B4
:10093000806F00D110E0936803F00063B3F1006FA3
:1009400001D1012008E0936803F08053B3F1805F88
:1009500001D1022000E00420042874D002F5C07305
:1009600003EB00131B6803F0010402F5C07303EBF3
:1009700000131C600B7A7BB94B7A0C8843EA445312
:1009800002F5C07404EB00142468234302F5C0741C
:1009900004EB0014236010E00B7A4C6843EAC403B4
:1009A0004C7A234302F5C07404EB001424682343FB
:1009B00002F5C07404EB001423608B7A03F00F037C
:1009C0008B7202F5C07303EB00135B6823F00F0416
:1009D00002F5C07303EB00135C6002F5C07303EB18
:1009E00000135B688C7A234302F5C07404EB001497
:1009F00063608B7B1C064B7B44EA03440B7B44EA1D
:100A00000323CC7A234302F5C07404EB0014A360E3
:100A10008B7C1C064B7C44EA03440B7C44EA032396
:100A2000CC7B234302F5C07404EB0014E36002F5B1
:100A3000C07303EB00131B6843F0010402F5C0739D
:100A400003EB00131C6010BD70471CB50121084664
:100A500000F06AFA0221084600F08AF804200090AB
:100A600000208DF804000C208DF8050001208DF881
:100A70000600684600F032F8042000F015F81CBDAE
:100A800010B5042000F016F850B1042000F00CF866
:100A900004480068401C03490860022001F05EF829
:100AA00010BD0000AC000020014908607047000044
:100AB00014040140014600200022074B1B6803EA92
:100AC0000102054B14331B680B4013B10AB101201E
:100AD00000E000207047000000040140002123498D
:100AE0008279002A3AD00A46126803689A430B4674
:100AF0001A600A1D126803689A430B1D1A60027976
:100B000011440A6803681A430A60184A08321268D6
:100B100003689A43154B08331A601A1D126803685C
:100B20009A43124B0C331A604279102A0ED11A1FC5
:100B3000126803681A430D4B08331A601A1D1268B5
:100B400003681A43094B0C331A600DE007494279D8
:100B500011440A6803681A430A6005E002791144E7
:100B60000A6803689A430A60704700000004014065
:100B700030B500228B071C0F0F2303FA04F20B4B36
:100B80008C1053F824309343084C8D1044F82530D2
:100B900023468C1053F824308C07240F00FA04F4F9
:100BA0002343024C8D1044F8253030BD080001402D
:100BB0002DE9F041024600250026002000230024F4
:100BC000002791F803C00CF00F0591F803C00CF05A
:100BD000100CBCF1000F03D091F802C04CEA0505DF
:100BE00091F800C0BCF1000F31D0146800202BE058
:100BF0004FF0010C0CFA00F3B1F800C00CEA030648
:100C00009E4220D183004FF00F0C0CFA03F7BC4337
:100C100005FA03FC4CEA040491F803C0BCF1280F68
:100C200006D14FF0010C0CFA00FCC2F814C00AE027
:100C300091F803C0BCF1480F05D14FF0010C0CFA3C
:100C400000FCC2F810C0401C0828D1D31460B1F8D1
:100C500000C0BCF1FF0F34DD546800202EE000F12D
:100C6000080C4FF0010808FA0CF3B1F800C00CEAC8
:100C700003069E4221D183004FF00F0C0CFA03F7BC
:100C8000BC4305FA03FC4CEA040491F803C0BCF130
:100C9000280F05D100F1080C08FA0CF8C2F81480EE
:100CA00091F803C0BCF1480F07D100F1080C4FF0D8
:100CB000010808FA0CF8C2F81080401C0828CED3AE
:100CC0005460BDE8F08100001CB50121102000F047
:100CD0002BF90420ADF8040048208DF8070003200C
:100CE0008DF8060001A90948FFF762FF08208DF87A
:100CF000000002208DF8010000208DF80200012084
:100D00008DF80300684600F0B5F81CBD00100140E6
:100D100000BFFEE70146CA1701EB92729210A1EBE9
:100D2000820292B9642091FBF0F200FB121050B9DC
:100D30004FF4C87091FBF0F200FB121008B90120CB
:100D400070470020FCE70120FAE70020F8E70000E8
:100D500000B5002015490861C860142048610020D2
:100D60008861C8610846006840F0010008600846D4
:100D700040680F4908400D494860084600680D4921
:100D800008400A4908600846006820F4802008608E
:100D90000846406820F4FE0048600020886000217A
:100DA0004FF0006000F058F800BD00000010024055
:100DB0000000FFF8FFFFF6FE2DE9F04107468846E8
:100DC00014461D46284600F033F8C5F1040007FA22
:100DD00000F60F20284100EA0800064306F00F063F
:100DE000E21704EBD2625211920002F1E022D2F833
:100DF00000212146E31704EBD3635B11A4EB431CF2
:100E0000012303FA0CF31A432046E31704EBD363E0
:100E10005B119B0003F1E023C3F800210348005D50
:100E200040EA061001490855BDE8F08100E400E001
:100E30000146072323EA01021202054B18684FF608
:100E4000FF031840034B18431043014B18607047D1
:100E50000CED00E00000FA05024A0A400243024B92
:100E60001A60704780FFFF1F08ED00E000BFFEE73B
:100E70007047000070B5002100230F22C47804B32E
:100E8000154C246804F4E064C4F5E064210AC1F15F
:100E90000403CA40447804FA03F1847814402143DF
:100EA00009010E4C0678A155047804F01F050124B1
:100EB000AC4005786D11AD0005F1E025C5F80041A5
:100EC00009E0047804F01F050124AC40044D0678C5
:100ED000761145F8264070BD0CED00E000E400E01E
:100EE00080E100E07047000029B1064AD269024360
:100EF000044BDA6104E0034AD2698243014BDA61B0
:100F0000704700000010024029B1064A12690243EE
:100F1000044B1A6104E0034A12698243014B1A61CF
:100F2000704700000010024029B1064A926902434E
:100F3000044B9A6104E0034A92698243014B9A612F
:100F4000704700000010024029B1064AD2680243EF
:100F5000044BDA6004E0034AD2688243014BDA6052
:100F6000704700000010024070B5002600240025E4
:100F70003A4806883604001D008806443848B6FB07
:100F8000F0F438480088A0423AD036490C8040F24C
:100F9000B2750EE02846FFF7BDFE30B1B4F5B77F5D
:100FA00002D3A4F5B77402E006E0A4F26D14681C45
:100FB00085B2B4F5B67FEDD800BF2B4885800025FB
:100FC00016E029498888FFF7A5FE30B1012D04D12C
:100FD0001D2C01D31D3C09E00CE02448405DA042DB
:100FE00003D82248405D241A00E003E0681C85B263
:100FF0001C2CE6D200BF681C1B498871601CC8719C
:101000001748B6FBF0F100FB11644FF46160B4FBCC
:10101000F0F0154908704FF46160B4FBF0F100FB8B
:1010200011403C21B0FBF1F00F4948704FF4616072
:10103000B4FBF0F100FB11403C21B0FBF1F201FBED
:101040001200094988700B46DA799979988800F07E
:101050000FF805490872002070BD000018280040F4
:1010600080510100E600002032A20020BA250008CD
:10107000F0B503460C461546642093FBF0F0C6B26B
:10108000642093FBF0F700FB1730C1B2132E02DD92
:1010900001F16400C1B20846CF1701EB977701EB6D
:1010A000A707BAB2072092FBF0F700FB172082B225
:1010B0005719601EDFF82CC01CF80000384482B2BB
:1010C000CF1701EB9777BF10A1EB87071FB9032C50
:1010D00001DA501E82B2072092FBF0F700FB1720C6
:1010E000C0B2F0BDAE2500080EB51A48008800F069
:1010F000010018B1FFF738FFFFF7CEF91548008857
:1011000000F00200B8B11348008820F00200114935
:101110000880FFF729FF104880780F4949780E4A68
:101120001278CDE9002102900B48C3798279818839
:101130000AA0FFF775F80748008840F6FA710840E2
:101140000449088000BF0348008800F02000002800
:10115000F9D00EBD0428004032A20020416C61721B
:101160006D20202054696D653A25642D25642D2558
:101170006420202025643A25643A25640A00000092
:101180001CB500243B48C06940F080503949C86113
:101190000846C06940F00060C8613748006840F404
:1011A0008070354908603348006A40F48030314926
:1011B00008620846006A20F4803008620846006A27
:1011C00040F4407008620846006A40F4004008623B
:1011D00000BF2A48008800F020000028F9D000BF96
:1011E0002648008800F008000028F9D02348001F96
:1011F000008840F001002149091F08800846008846
:1012000040F00200088000BF1C48008800F0200069
:101210000028F9D01948008840F0100017490880CC
:101220000020091D08804FF22240091D0880372048
:101230002A2111230E22CDE90010012140F2DF7096
:1012400000F01EF80D48008820F010000B490880BF
:1012500000BF0A48008800F020000028F9D00223CF
:10126000032200210846FFF7A7FDFFF77DFE0020BF
:101270001CBD000000100240007000400428004027
:101280002DE9F04F06460F4690469946DDE909AB39
:10129000002440F2B270864203DB40F633008642FF
:1012A00002DD0120BDE8F08F40F2B2750AE0284669
:1012B000FFF730FD10B13048044401E02F480444EA
:1012C000681C85B2B542F2DB781EC7B2002510E07B
:1012D0002B48405D40F2A321484304EBC014304644
:1012E000FFF718FD18B1012D01D126480444681CF0
:1012F00085B2BD42ECDBA8F1010040F2A3214843D6
:1013000004EBC014C9EB4910C0EB092004EB001436
:10131000CAEB0A1004EB80045C441B48C06940F02F
:1013200080501949C8610846C06940F00060C86132
:101330001648006840F4807014490860144800881A
:1013400040F0100012490880114918310C80200C1F
:10135000091F08800E48008820F010000C49088002
:1013600000BF0B48008800F020000028F9D0FFF7EC
:10137000FBFD002096E700000085E2018033E101DB
:10138000BA250008805101000010024000700040A2
:10139000042800401FB501210846FFF7A5FD4FF0C6
:1013A000804000F049F91D20ADF8040048F69F4048
:1013B000ADF800000020ADF80600ADF80200694667
:1013C0004FF0804000F04AFA0121880700F022F92E
:1013D00001220221480700F037FA0121880700F0B6
:1013E0001FF91C208DF80C0000208DF80D008DF8E1
:1013F0000E0001208DF80F0003A8FFF73BFD1FBD75
:101400007047000030B504460025FFF7A1FC2248D4
:10141000006840F480302049086000BF1E48006822
:10142000400C0028FAD04FF480601B494860A01E91
:10143000C4B20846406840EA8440486008464068B4
:1014400040F4803048601548006840F0320013498D
:1014500008601148006840F080700F49086000BFC4
:101460000D480068400E0028FAD00B48406840F054
:1014700002000949486005E007484068C0F3870555
:1014800005F00305022DF7D10348006A40F0010082
:101490000149086230BD00000010024000200240F7
:1014A0007047000010B50221480700F0BCF978B180
:1014B0000221480700F0B1F806480068401C0549C1
:1014C00008600120044908700121800700F0A2F89B
:1014D00010BD00009C0000209000002010B50221EB
:1014E000074800F0A0F950B10221054800F095F836
:1014F0000020044908600121014800F08BF810BD6C
:1015000000040040A00000201FB501210220FFF7C9
:10151000EBFC184800F090F840F2CF70ADF80400F2
:1015200048F69F40ADF800000020ADF80600ADF889
:10153000020069460F4800F091F901210D4800F0C2
:1015400069F8012202210B4800F07EF901210948C7
:1015500000F066F81D208DF80C0000208DF80D00BD
:101560008DF80E0001208DF80F0003A8FFF782FC14
:101570001FBD00000004004010B50221084800F023
:1015800052F960B10221064800F047F805480068AA
:10159000401C044908600121014800F03BF810BDDF
:1015A00000080040A00000201FB501210420FFF723
:1015B0009BFC174800F040F840F2E730ADF804001B
:1015C0004720ADF800000020ADF80600ADF802009D
:1015D00069460F4800F042F901210D4800F01AF861
:1015E000012202210A4800F02FF90121084800F0E9
:1015F00017F81E208DF80C0000208DF80D008DF8D6
:101600000E0001208DF80F0003A8FFF733FC1FBD6B
:1016100000080040CA4302827047CA4302827047F2
:1016200021B1028842F00102028004E002884FF6F4
:10163000FE731A400280704710B504466848844221
:1016400008D10121C014FFF77FFC0021E014FFF74F
:101650007BFCC4E0B4F1804F08D101210846FFF7BC
:1016600053FC00210120FFF74FFCB8E05D488442A5
:1016700008D101210220FFF747FC00210220FFF7DB
:1016800043FCACE05848844208D101210420FFF714
:101690003BFC00210420FFF737FCA0E053488442C4
:1016A00008D101210820FFF72FFC00210820FFF7B7
:1016B0002BFC94E04E48844208D101211020FFF712
:1016C00023FC00211020FFF71FFC88E049488442DA
:1016D00008D101212020FFF717FC00212020FFF76F
:1016E00013FC7CE04448844208D101214014FFF7F8
:1016F0002BFC00216014FFF727FC70E03F48844278
:1017000009D10121C804FFF71FFC00214FF400207C
:10171000FFF71AFC63E03A48844209D10121080529
:10172000FFF712FC00214FF48010FFF70DFC56E08C
:101730003448844209D101214805FFF705FC002106
:101740004FF40010FFF700FC49E02F48844208D115
:1017500001214020FFF7D8FB00214020FFF7D4FBF8
:101760003DE02A48844208D101218020FFF7CCFBCC
:1017700000218020FFF7C8FB31E02548844208D1D2
:1017800001218015FFF7C0FB0021A015FFF7BCFB6E
:1017900025E02048844209D101210804FFF7D4FB49
:1017A00000214FF48030FFF7CFFB18E01A48844245
:1017B00009D101214804FFF7C7FB00214FF4003095
:1017C000FFF7C2FB0BE01548844208D101218804D1
:1017D000FFF7BAFB00214FF48020FFF7B5FB10BDE7
:1017E000002C01400004004000080040000C0040B4
:1017F000001000400014004000340140004C014043
:10180000005001400054014000180040001C0040FE
:1018100000200040004001400044014000480140D9
:101820000146888C704730B5024600200023002412
:10183000158A05EA0103958905EA010413B10CB183
:10184000012000E0002030BD1AB183890B43838161
:1018500002E083898B438381704700000022028865
:101860001D4B98420ED01D4B98420BD0B0F1804FCB
:1018700008D01B4B984205D01A4B984202D01A4B05
:10188000984204D14FF68F731A404B881A43174B76
:10189000984207D0164B984204D04FF6FF431A40A7
:1018A000CB881A4302808B8883850B8803850A4B7B
:1018B00098420BD0094B984208D00E4B984205D065
:1018C0000D4B984202D00D4B984201D10B7A038602
:1018D0000123838270470000002C01400034014046
:1018E0000004004000080040000C004000100040D0
:1018F0000014004000400140004401400048014005
:1019000010B50F48008800F02000C0B10C48001D41
:101910000088C4B220210A4800F032F809480A4978
:101920000978445408480078132805D00648007800
:10193000401C0549087002E000200349087010BDF2
:101940000038014056A10020DC00002010B540F214
:1019500025510A4800F01DF818B1084800F068F851
:10196000C4B240F22771054800F013F828B10022F4
:1019700040F22771014800F036F810BD00440040E5
:1019800001F40072B2F5007F00D100BFCA430280AB
:10199000704770B50246002400230025002040F661
:1019A0006A16B14200D100BFC1F3421501F01F0316
:1019B000012606FA03F3012D02D19689334006E091
:1019C000022D02D1168A334001E0968A33400C1270
:1019D000012606FA04F41688344013B10CB1012034
:1019E00000E0002070BDF0B503460024002600256D
:1019F000002040F66A17B94200D100BF1846C1F373
:101A0000421401F01F06012707FA06F5012C01D147
:101A10000C3004E0022C01D1103000E014301AB177
:101A200007682F43076002E00768AF430760F0BD17
:101A300001468888C0F308007047000010B586B0E2
:101A40000020019002908DF80D008DF80C008DF8AB
:101A50000E008DF81700002405E000210DF10F00A5
:101A60000155601CC4B2082CF7DB01AA0021134801
:101A7000FEF7CAFE124901980870002406E00DF135
:101A80000F00005D0F490855601CC4B2082CF6DB3E
:101A90000D48007880B901200B490870084800788B
:101AA0000A490870002405E00648005D0849085509
:101AB000601CC4B2082CF7DB06B010BD0064004007
:101AC000CB000020C10000204B000020CA000020F5
:101AD000B900002000BFFEE700B502461346D1174B
:101AE00002EB1171C1F3071000F036FA10490870CB
:101AF00000BF1048008800F040000028F9D00C48D2
:101B000000780C49091D088000BF0A48008800F0D1
:101B100040000028F9D002F00F0000F01DFA04493F
:101B20000870084600780349091D088000BD0000C0
:101B30004800002000380140014600BF7047000007
:101B4000002004E0002203490A54411CC8B20828BE
:101B5000F8DB70471F0000200246704770B505464D
:101B600055480078002852D154480068B0F5204FFD
:101B70004ED2534881795348504A12688154504894
:101B8000C179504A4D480068401C11544C480178B6
:101B90004A480068801C1154494841784748006809
:101BA000C01C11544648817844480068001D1154F7
:101BB00045480088C0F3072140480068401D115483
:101BC000414801783D480068801D11543F48FFF7A7
:101BD00027FE0446C01704EB1060C0F30721394A02
:101BE00036480068C01D11543848FFF719FEC1B2CD
:101BF000344A324800680830115401212F480068E7
:101C0000093011542D4800680A302C49086051E011
:101C10002B4881792B48294A126881542848C17978
:101C2000284A26480068401C11542548017823485A
:101C30000068801C11542248417820480068C01C6C
:101C400011541F4881781D480068001D11541E481A
:101C50000088C0F3072119480068401D11541A4834
:101C60000278184915480068801D0A541748FFF784
:101C7000D7FD0446C01704EB1060C0F30721114ADA
:101C80000E480068C01D11541048FFF7C9FDC1B2CD
:101C90000C4A0A48006808301154FF2107480068C0
:101CA00009301154054800680A30044908600120D1
:101CB0000149087070BD0000C9000020B00000207C
:101CC00032A200204C010020A000002000080040AB
:101CD00008B50920FFF796FB4FF46131482000F06A
:101CE00055F9FFF711FCFFF75FFCFFF749FA0020F9
:101CF00004230922082100900120FEF79BFCFEF737
:101D0000E3FFFEF7A2FEFFF745FB022068490870DB
:101D10000020684908806849088068490870C5E063
:101D2000674800780128FAD10020654908706548A5
:101D30000078012801D100F0E7F863480078032813
:101D4000EDD1624800686249096888421BD055207D
:101D5000FFF7C2FE0C20FFF7BFFE5C48046804E0FA
:101D60005C49085DFFF7B8FE641C584800680A30FB
:101D70008442F5D3AA20FFF7AFFE544800680A302A
:101D80005249086092E054480078012865D15348D0
:101D900000780C2838D052480078FF2834D05520DD
:101DA000FFF79AFE4D480078FFF796FE4D49887977
:101DB000FFF792FE002404E04949085DFFF78CFE1E
:101DC000641C082CF8D348484449097850F821008D
:101DD000B0F5805F03D1FF20FFF77EFE02E0012017
:101DE000FFF77AFEAA20FFF777FE3F483B490978C4
:101DF00050F82100401C3C49384A127841F8220032
:101E00000C203649087022E035480078FF281ED1A2
:101E100027480078192805D025480078401C244917
:101E2000087002E0012022490870FF202F49C87283
:101E30001F4801782D480173FF21817401462C4809
:101E4000FEF75AFDFFF77CFE0C20244908700020A5
:101E5000214908702749087028E026480078322870
:101E600005DA24480078401C224908700FE0002061
:101E7000204908700E480078192805D00C480078D1
:101E8000401C0B49087002E0012009490870FF203E
:101E90001649C8720648017814480173FF218174FD
:101EA00001461348FEF728FDFFF74AFE38E7000019
:101EB0004D000020320000203400002044000020AB
:101EC00090000020490000204F000020600000200A
:101ED000B00000204C0100204B000020CA00002070
:101EE000B900002032A20020E800002014000020E9
:101EF000006400404E00002001B500BF0098411E64
:101F000000910028FAD108BD10B5002404E011208A
:101F10000D49C872601CC4B2082CF8DB0A490B4892
:101F2000FEF7EAFCFFF70CFE4FF6FF70FFF7E4FF49
:101F300000BF0748006800F4E06006490843001D40
:101F40000349086000BF10BD140000200064004079
:101F50000CED00E00000FA050146002905DB092927
:101F600003DC01F13000C0B2704701F15700C0B28C
:101F7000FAE70146302905DB392903DCA1F13000FD
:101F8000C0B27047A1F13700C0B2FAE72DE9F05FA7
:101F900005460E46300100F0ABF981462E4905FB9F
:101FA00001F000F0A5F98246494600F0BFF8074667
:101FB000384600F07DF984B2204600F099F9834656
:101FC000394600F075FA82464FF0834100F0A4F9DB
:101FD000814600F06DF980464FF6FF7000EA041468
:101FE00004EB080084B21D48806940F004001B49DE
:101FF00088610846806940F480408861184800681C
:1020000020F47F60164908600846006840F40B60C1
:1020100008601248C06840F480401049C860084613
:10202000C06820F48040C8600E480480001D00880D
:1020300042F20C0108430B49091D0880084600883C
:1020400040F0200008800223252203210846FEF7E5
:10205000B3FEBDE8F09F000040420F0000100240B8
:10206000040801400838014090EA010F48BF81F0A0
:10207000004100F12E82421A3CBF801A89184FEAB3
:10208000D0524FF07F4C1CEA410FA2EBD15318BF46
:102090009CEA026F00F03B804FF0004C4CEA0020BD
:1020A0004CEA012121FA03FC10EB0C0C1ED202F1C8
:1020B000FF325FEA1C2040EBC25038BF70471CF073
:1020C0007F0F4FEA400C18BFBCF17F4F38BF7047FD
:1020D000C3F12003994008BF20F00100BCF17F4FFD
:1020E00038BF7047A0F1C04000F0DDB94FEA3C00B6
:1020F000000A40EBC25028BF1CF0FF0F4FEA400C13
:10210000E6D018BFBCF17F4F38BF7047EAE79CEAC2
:10211000026F05D010EA5C0F08BF00F00040704766
:1021200010B500F07AF900BF64FBBE3E4FF47F0C9F
:102130001CEAD0121EBF1CEAD11392EA0C0F93EADC
:102140000C0F00F0858090EA010F48BF42F48072C6
:1021500040F4000C41F400002CF07F4120F07F405F
:1021600000B58142A2EB03020FF2081CACEB504E0B
:10217000C0F100009EF800E04FEA4E0E00FB0EFC9E
:1021800038BF49004FEA2C1C02F5FA020CFB0EF393
:102190004FEACE1E4FEA112C4FEAC1210EEB635ECF
:1021A00042EB22420EFB0CFC4FEA1C5300FB0311D6
:1021B0004FEA112C4FEA01310EFB0CFC4FEADC4CCC
:1021C00000FB0C11C14228BF09184CEB03335DF82A
:1021D00004EB10EB410143EBC250B2F57C0F38BF6A
:1021E000704729D512F0F00F1CBF00F1C04000F07D
:1021F00000407047008182838485868788898B8C24
:102200008D8E8F919293959697999A9C9D9FA0A25F
:10221000A3A5A7A8AAACAEB0B2B3B5B7B9BCBEC0AF
:10222000C2C5C7C9CCCED1D4D7D9DCDFE2E6E9EC50
:10223000F0F3F7FAFE0000004FEA400C0CF1807C4E
:10224000BCF17E4F28BF7047B0F1C04000F02BB901
:1022500090EA010F0CEAD11348BF42F48072624544
:1022600038BF634507D213F47F0F16D080EA010010
:1022700000F00040704710B500F0CFF8097EFC3E3A
:1022800000F005B880EA010000F00040704780EAE5
:10229000010000F0004000F006B912F47F0F04BF07
:1022A0000248704780EA010000F0FDB80000C07FDE
:1022B000C10DD1F19E0206DB4FEA002343F000433B
:1022C00023FA02F07047004207D54FEA4001B1F10E
:1022D000FE4F02D24FF00000704710B500F09DF89D
:1022E00049922480002070476FEA20007047000068
:1022F000B0FA80F310FA03F2C3F19D030AD0D905B6
:1023000001EB1220530638BF704700F1010008BFEF
:1023100020F00100704700004FF47F0C1CEAD0123F
:102320001EBF1CEAD11392EA0C0F93EA0C0F00F0C7
:10233000478090EA010F48BF42F480724FF0004C92
:102340004CEA00204CEA012102EB0302A0FB01133E
:10235000A2F50002002918BF43F001035B0028BF6B
:102360004FEA330342EB22425FEA132C4CEBC2509C
:102370002EBFBCEB436FB2F57C0F70474FEA036C86
:10238000BCF1004F08BF20F00100B2F57C0F38BF50
:1023900070470BD582F0FF0212F5803FC8BF70472F
:1023A00000F1C040D8BF00F00040704700F5000CBD
:1023B0005FEA4C0C48BF7047B0F1C04000F073B802
:1023C00090EA010F0CEAD11348BF42F480726245D3
:1023D00038BF634504D280EA010000F00040704736
:1023E00010B500F01AF800BF8900013E00F007B8F0
:1023F00000F009B85FEA410C5FEA1C6C08D080EA83
:10240000010000F050B85FEA400C5FEA1C6CF6D1A6
:102410004FF00040A0F5800070470EF1020E2EF044
:10242000030E5EF8044B244204D44FEA4102B2F199
:102430007F4F11D84FEA4003B3F17F4F0CD80ED134
:102440004FEAD07CB2F17F4F0CEB4C0C0CF1020C3C
:1024500008BF4CEBD17C04E04FF0080C01E04FEAE0
:10246000D17C0CEB4C0324FA03F404F00704B4F120
:10247000040C06D20EEB840CBDE810404CF0010CAD
:102480006047DFE80CF0070802024FF00040A0F5BB
:10249000800010BD0846420018BFD2F1807288BF8C
:1024A00000F0004010BDFF2141EAD050C005704748
:1024B00080F0004090EA010F7FF5DDAD81F0004132
:1024C00000F007B890EA010F48BF81F000413FF5E6
:1024D000D2AD421A04D882F00042A0EB02001144AF
:1024E0004FEAD0524FF07F4C1CEA410FA2EBD15380
:1024F00018BF9CEA026F4AD04FF0004C4CEA002013
:102500004CEA012121FA03FCB0EB0C0C0FD412F0C1
:10251000FE0F36D05FEA4C001DD5001240EBC250D2
:1025200038BF70471CF03F0F18BF70470BE0A2F197
:1025300001025FEA1C2040EBC25038BF70471CF01C
:102540007F0F18BF7047C3F12003994014BF401E8E
:1025500020F00100704780084FEA122308BF70473F
:10256000B0FA80FCA2EB0C02CCF1280C60FA0CF063
:1025700093EA122F04BF00EBC25070474FEAC370BA
:102580007047130A5FEADC1008BF7047F6E79CEA61
:10259000026F04D010EA5C0F08BF0020704710B52E
:1025A000FFF73BFF40DFF63E81F00040704700033D
:1025B000030601040602050003051F1C1F1E1F1E43
:1025C0001F1F1E1F1E1F0000E8250008000000201E
:1025D000E80000006C010008D0260008E800002098
:1025E000B8A3000088010008AB0000000000000054
:1025F000000008AB0102030405060700FF0000000D
:1026000000000000000008AC000000000000000016
:1026100000000000000000000000000000000000BA
:1026200000000000000000000000000000000000AA
:10263000000000000000000000000000000000009A
:10264000000000000000000000000000000000008A
:10265000000000000000000000000000000000007A
:10266000000000000000000000000000000000006A
:10267000000000000000000000000000000000005A
:10268000000000000000000000000000000000004A
:10269000000000000000000000000000000000003A
:1026A000000000000000000000000000000000002A
:1026B00000000C000000000000000000000000000E
:1026C000000000000000000000000000000000000A
:04000005080001D717
:00000001FF
