:020000040800F2
:1000000050A3002091010008790D0008190C000888
:10001000750D00083D04000851190008000000009B
:1000200000000000000000000000000011130008A4
:100030004909000800000000ED0D0008B113000898
:10004000A7010008A7010008A7010008F10F000898
:10005000A7010008A7010008A7010008A7010008E0
:1000600089090008A7010008A7010008A7010008E6
:10007000A7010008A7010008A7010008A7010008C0
:10008000A7010008A7010008A7010008A7010008B0
:10009000F1180008A7010008A7010008A70100083F
:1000A000A7010008A7010008A7010008A701000890
:1000B000B5130008ED13000889140008A701000813
:1000C000A7010008A7010008A7010008A701000870
:1000D000A7010008A701000815180008A7010008DB
:1000E000A7010008A7010008A701000800F002F816
:1000F00000F03FF80AA090E8000C82448344AAF183
:100100000107DA4501D100F034F8AFF2090EBAE880
:100110000F0013F0010F18BFFB1A43F0010318473B
:10012000241B0000441B0000103A24BF78C878C18B
:10013000FAD8520724BF30C830C144BF04680C60ED
:10014000704700000023002400250026103A28BF35
:1001500078C1FBD8520728BF30C148BF0B60704739
:10016000642900F07180002070471FB51FBD10B5D5
:1001700010BD00F031F91146FFF7F7FF01F0B6FCB2
:1001800000F04FF903B4FFF7F2FF03BC01F0E2FB0C
:1001900008480047FEE7FEE7FEE7FEE7FEE7FEE76A
:1001A000FEE7FEE7FEE7FEE703480449024A044B88
:1001B00070470000ED00000850A1002050A300206F
:1001C00050A10020704700000FB4044910B503AAE5
:1001D000029800F0D3F810BC5DF814FBD0000020AA
:1001E0002DE9F0410E460446002020622046E168D9
:1001F000884730B3252805D0D4E901219047206AEB
:10020000401CF2E7E168204600278847050018D027
:10021000A5F14100192802D820354FF40067324675
:10022000294620462760FFF79BFF40B1012804D0F4
:10023000F61D26F007060836D8E7361DD6E728460D
:10024000DAE7206ABDE8F0812DE9F0410646002496
:1002500010687529314616A510D0AFF3008000282C
:1002600002DA404213A507E031688A0701D512A5DA
:1002700002E0490704D511A5012401E0AFF3008095
:1002800000210A2206F1240709E0B0FBF2FCB0FBD2
:10029000F2F302FB1C00303078541846491C002849
:1002A000F3D123462A463046BDE8F04100F00CB8B1
:1002B000000000002D0000002B00000020000000C6
:1002C00070477047704770472DE9F0470D469946D3
:1002D0009246044600F124080168880604D5E069C6
:1002E00021F01001216000E00120A84201DD471B40
:1002F00000E00027A1697A1902EB0900081AA06141
:100300002078C00602D42046AFF30080002608E023
:10031000D4E901211AF806009047206A401C761C97
:1003200020624E45F4DB2078C0060AD52046AFF3A4
:10033000008006E0D4E9012130209047206A401C6B
:100340002062381EA7F10107F4DC07E0D4E901219F
:1003500018F805009047206A401C2062281EA5F16D
:100360000105F3DC2046AFF300802078000602D5BB
:100370000220BDE8F0870120FBE70000074B70B5C5
:100380000D467B4400F011F80446284600F020F8A2
:1003900010B14FF0FF3070BD204670BDEF1500006A
:1003A00001694A1C02610878704700B58FB0CDE939
:1003B00001310021059105497944CDE90310114629
:1003C0006846FFF70DFF0FB000BD0000E5FFFFFF1F
:1003D000007B00F080007047754600F02BF8AE46B9
:1003E00005006946534620F00700854618B020B541
:1003F000FFF7DAFEBDE820404FF000064FF000079F
:100400004FF000084FF0000B21F00701AC46ACE8BC
:10041000C009ACE8C009ACE8C009ACE8C0098D4629
:10042000704710B50446AFF300802046BDE8104089
:10043000FFF7A8BE00487047F0A0002000BFFEE70D
:100440001CB53348C079552820D13148007930494E
:10045000C978CDE900102E4883784278017840F2BF
:10046000E17000F095FE2A484079000229490860B1
:100470002748807909780844C0B2264908600020DE
:100480002349C87101202449087037E02048C07909
:10049000992820D11E480078204988701C4840784F
:1004A00000021C4908601A48807809680844194904
:1004B00008601748C0784FF6FF7101EA002414481D
:1004C0000079204484B22146154801F04EF90020FD
:1004D0000F49C87112E00E48007811280ED1002093
:1004E0000B49087000BF0F48006800F4E0600E4937
:1004F0000843001D0B49086000BF00BF0648007894
:1005000020B9002009490860094908601CBD0000A5
:10051000B60000209C0000204C000020E6A0002037
:10052000000800400CED00E00000FA05AC000020DF
:100530005C0000202DE9F04704460D4617461E4694
:10054000DDF820904FF0000814B10DB107B116B9D5
:100550000120BDE8F087601EC4B2681EC5B2781ED7
:10056000C7B2701E86B26448806940F004006249D8
:1005700088616248006820F47F206049086008466E
:10058000006840F4382008605C480830006840F497
:10059000C0505A49083108605748C06940F000709F
:1005A0005549C8610020564908600846006840F077
:1005B0000100086008E008F101001FFA80F8B8F1B6
:1005C000640F01DD0220C4E74D48001D006800F003
:1005D00001000028EFD04A480068494908600846F1
:1005E000006808600846006808600846006840F037
:1005F0001000086008460068086008460068086047
:1006000000203F491C3108600846006840EA8970B4
:1006100008600846006840EA046008600846006810
:1006200040EA055008600846006840EA0740086054
:1006300008460068304308603148006820F0010037
:100640002F49086009E008F101001FFA80F84FF611
:10065000F070804501DD03207BE72948001D00681C
:1006600000F001000028EED12648006840F00100AB
:100670002449086023481C30006820F0010021490B
:100680001C3108601F480C30006840F001001D4913
:100690000C3108601B48001D00681A49091D0860DC
:1006A00018481430006817491431086000201549B3
:1006B00040310860002113484430016011481C306B
:1006C000006840F001000F491C3108600D480068C7
:1006D00000200C4908600A481430006840F002000D
:1006E000074914310860022314220021012000F080
:1006F000E7FA00202DE70000001002400408014046
:10070000006400400066004010B500F5D87303EBAC
:1007100001131B6803F004031372137A53B900F535
:10072000D87303EB01131B6840F2FF7404EA5353C0
:10073000136009E000F5D87303EB01131B686FF039
:10074000604404EAD303536000F5D87303EB01134C
:100750001B6803F00203537200F5D87303EB011317
:100760005B6803F00F03937200F5D87303EB01137A
:100770005B681B0AD37400F5D87303EB01139B6805
:10078000D37200F5D87303EB01139B681C0A147332
:1007900000F5D87303EB01139B681C0C547300F530
:1007A000D87303EB01139B681B0E937300F5D8738A
:1007B00003EB0113DB68D37300F5D87303EB01136C
:1007C000DB681C0A147400F5D87303EB0113DB68B3
:1007D0001C0C547400F5D87303EB0113DB681B0E7B
:1007E000937421B9C36843F02003C36003E0036935
:1007F00043F02003036110BD2DE9F04105460E468C
:100800000024002700BF3146284600F00AF80746BA
:10081000601CC4B2042F01D1FE2CF4DB0024BDE81F
:10082000F08110B502460020936803F08063B3F1B5
:10083000806F00D110E0936803F00063B3F1006FA4
:1008400001D1012008E0936803F08053B3F1805F89
:1008500001D1022000E00420042874D002F5C07306
:1008600003EB00131B6803F0010402F5C07303EBF4
:1008700000131C600B7A7BB94B7A0C8843EA445313
:1008800002F5C07404EB00142468234302F5C0741D
:1008900004EB0014236010E00B7A4C6843EAC403B5
:1008A0004C7A234302F5C07404EB001424682343FC
:1008B00002F5C07404EB001423608B7A03F00F037D
:1008C0008B7202F5C07303EB00135B6823F00F0417
:1008D00002F5C07303EB00135C6002F5C07303EB19
:1008E00000135B688C7A234302F5C07404EB001498
:1008F00063608B7B1C064B7B44EA03440B7B44EA1E
:100900000323CC7A234302F5C07404EB0014A360E4
:100910008B7C1C064B7C44EA03440B7C44EA032397
:10092000CC7B234302F5C07404EB0014E36002F5B2
:10093000C07303EB00131B6843F0010402F5C0739E
:1009400003EB00131C6010BD70471CB50121084665
:1009500000F06EFA0121102000F06AFA0221084628
:1009600000F08AF80420009000208DF804000C208C
:100970008DF8050001208DF80600684600F032F879
:10098000042000F015F81CBD10B5042000F016F886
:1009900050B1042000F00CF804480068401C0349E2
:1009A0000860022000F0E8FF10BD0000A800002051
:1009B000014908607047000014040140014600200E
:1009C0000022074B1B6803EA0102054B14331B6826
:1009D0000B4013B10AB1012000E000207047000075
:1009E00000040140002123498279002A3AD00A46B6
:1009F000126803689A430B461A600A1D126803685E
:100A00009A430B1D1A60027911440A6803681A435D
:100A10000A60184A0832126803689A43154B083373
:100A20001A601A1D126803689A43124B0C331A603D
:100A30004279102A0ED11A1F126803681A430D4B0F
:100A400008331A601A1D126803681A43094B0C33E5
:100A50001A600DE00749427911440A6803681A4395
:100A60000A6005E0027911440A6803689A430A6043
:100A7000704700000004014030B500228B071C0FB6
:100A80000F2303FA04F20B4B8C1053F824309343DA
:100A9000084C8D1044F8253023468C1053F8243030
:100AA0008C07240F00FA04F42343024C8D1044F801
:100AB000253030BD080001402DE9F04102460025F7
:100AC0000026002000230024002791F803C00CF02A
:100AD0000F0591F803C00CF0100CBCF1000F03D00F
:100AE00091F802C04CEA050591F800C0BCF1000F76
:100AF00031D0146800202BE04FF0010C0CFA00F309
:100B0000B1F800C00CEA03069E4220D183004FF0EA
:100B10000F0C0CFA03F7BC4305FA03FC4CEA04047F
:100B200091F803C0BCF1280F06D14FF0010C0CFA6C
:100B300000FCC2F814C00AE091F803C0BCF1480FF1
:100B400005D14FF0010C0CFA00FCC2F810C0401C9B
:100B50000828D1D31460B1F800C0BCF1FF0F34DD18
:100B6000546800202EE000F1080C4FF0010808FA4C
:100B70000CF3B1F800C00CEA03069E4221D18300B9
:100B80004FF00F0C0CFA03F7BC4305FA03FC4CEAD8
:100B9000040491F803C0BCF1280F05D100F1080C42
:100BA00008FA0CF8C2F8148091F803C0BCF1480FA1
:100BB00007D100F1080C4FF0010808FA0CF8C2F850
:100BC0001080401C0828CED35460BDE8F08100009E
:100BD0001CB50121102000F02BF90420ADF8040011
:100BE00048208DF8070003208DF8060001A9094868
:100BF000FFF762FF08208DF8000002208DF8010049
:100C000000208DF8020001208DF80300684600F0F6
:100C1000B5F81CBD0010014000BFFEE70146CA1731
:100C200001EB92729210A1EB820292B9642091FBC7
:100C3000F0F200FB121050B94FF4C87091FBF0F2C3
:100C400000FB121008B9012070470020FCE70120CA
:100C5000FAE70020F8E7000000B500201549086118
:100C6000C8601420486100208861C8610846006897
:100C700040F001000860084640680F4908400D49EF
:100C80004860084600680D4908400A49086008465F
:100C9000006820F4802008600846406820F4FE00C8
:100CA00048600020886000214FF0006000F058F894
:100CB00000BD0000001002400000FFF8FFFFF6FE3C
:100CC0002DE9F0410746884614461D46284600F0A7
:100CD00033F8C5F1040007FA00F60F20284100EAB6
:100CE0000800064306F00F06E21704EBD262521129
:100CF000920002F1E022D2F800212146E31704EB32
:100D0000D3635B11A4EB431C012303FA0CF31A43D6
:100D10002046E31704EBD3635B119B0003F1E02350
:100D2000C3F800210348005D40EA06100149085558
:100D3000BDE8F08100E400E00146072323EA010258
:100D40001202054B18684FF6FF031840034B184377
:100D50001043014B186070470CED00E00000FA05ED
:100D6000024A0A400243024B1A60704780FFFF1F8D
:100D700008ED00E000BFFEE77047000070B50021FD
:100D800000230F22C47804B3154C246804F4E064F3
:100D9000C4F5E064210AC1F10403CA40447804FAAE
:100DA00003F184781440214309010E4C0678A155C3
:100DB000047804F01F050124AC4005786D11AD00E6
:100DC00005F1E025C5F8004109E0047804F01F05AD
:100DD0000124AC40044D0678761145F8264070BDDC
:100DE0000CED00E000E400E080E100E0704700006E
:100DF00029B1064AD2690243044BDA6104E0034A8E
:100E0000D2698243014BDA61704700000010024052
:100E100029B1064A12690243044B1A6104E0034AED
:100E200012698243014B1A617047000000100240B2
:100E300029B1064A92690243044B9A6104E0034ACD
:100E400092698243014B9A61704700000010024092
:100E500029B1064AD2680243044BDA6004E0034A2F
:100E6000D2688243014BDA607047000000100240F4
:100E700070B50026002400253A4806883604001D77
:100E8000008806443848B6FBF0F438480088A04291
:100E90003AD036490C8040F2B2750EE02846FFF792
:100EA000BDFE30B1B4F5B77F02D3A4F5B77402E04C
:100EB00006E0A4F26D14681C85B2B4F5B67FEDD8D7
:100EC00000BF2B488580002516E029498888FFF758
:100ED000A5FE30B1012D04D11D2C01D31D3C09E02C
:100EE0000CE02448405DA04203D82248405D241A0B
:100EF00000E003E0681C85B21C2CE6D200BF681C31
:100F00001B498871601CC8711748B6FBF0F100FBE3
:100F100011644FF46160B4FBF0F0154908704FF4B0
:100F20006160B4FBF0F100FB11403C21B0FBF1F03B
:100F30000F4948704FF46160B4FBF0F100FB1140C1
:100F40003C21B0FBF1F201FB1200094988700B460D
:100F5000DA799979988800F00FF80549087200202D
:100F600070BD00001828004080510100D80000200A
:100F7000E6A00020381C0008F0B503460C461546D4
:100F8000642093FBF0F0C6B2642093FBF0F700FB03
:100F90001730C1B2132E02DD01F16400C1B2084660
:100FA000CF1701EB977701EBA707BAB2072092FBA7
:100FB000F0F700FB172082B25719601EDFF82CC033
:100FC0001CF80000384482B2CF1701EB9777BF10AE
:100FD000A1EB87071FB9032C01DA501E82B207204C
:100FE00092FBF0F700FB1720C0B2F0BD2C1C0008EC
:100FF0000EB51C48008800F0010030B1FFF738FF43
:1010000019480068401C184908601648008800F01C
:101010000200B8B11348008820F00200114908808E
:10102000FFF726FF11488078104949780F4A127857
:10103000CDE9002102900D48C379827981880CA006
:10104000FFF7C2F80748008840F6FA7108400549E2
:10105000088000BF0348008800F020000028F9D075
:101060000EBD000004280040D4000020E6A00020AF
:10107000416C61726D2054696D653A25642D25645B
:101080002D25642025643A25643A25640A00000071
:101090001CB500243B48C06940F080503949C86104
:1010A0000846C06940F00060C8613748006840F4F5
:1010B0008070354908603348006A40F48030314917
:1010C00008620846006A20F4803008620846006A18
:1010D00040F4407008620846006A40F4004008622C
:1010E00000BF2A48008800F020000028F9D000BF87
:1010F0002648008800F008000028F9D02348001F87
:10110000008840F001002149091F08800846008836
:1011100040F00200088000BF1C48008800F020005A
:101120000028F9D01948008840F0100017490880BD
:101130000020091D08804FF22240091D0880372039
:101140002A2111230E22CDE90010012140F2DF7087
:1011500000F01EF80D48008820F010000B490880B0
:1011600000BF0A48008800F020000028F9D00223C0
:10117000032200210846FFF7A3FDFFF779FE0020B8
:101180001CBD000000100240007000400428004018
:101190002DE9F04F06460F4690469946DDE909AB2A
:1011A000002440F2B270864203DB40F633008642F0
:1011B00002DD0120BDE8F08F40F2B2750AE028465A
:1011C000FFF72CFD10B13048044401E02F480444DF
:1011D000681C85B2B542F2DB781EC7B2002510E06C
:1011E0002B48405D40F2A321484304EBC014304635
:1011F000FFF714FD18B1012D01D126480444681CE5
:1012000085B2BD42ECDBA8F1010040F2A3214843C6
:1012100004EBC014C9EB4910C0EB092004EB001427
:10122000CAEB0A1004EB80045C441B48C06940F020
:1012300080501949C8610846C06940F00060C86123
:101240001648006840F4807014490860144800880B
:1012500040F0100012490880114918310C80200C10
:10126000091F08800E48008820F010000C490880F3
:1012700000BF0B48008800F020000028F9D0FFF7DD
:10128000F7FD002096E700000085E2018033E101D0
:10129000381C00088051010000100240007000401E
:1012A000042800401FB501210846FFF7A1FD4FF0BB
:1012B000804000F049F91320ADF8040048F69F4043
:1012C000ADF800000020ADF80600ADF80200694658
:1012D0004FF0804000F04CFA0121880700F022F91D
:1012E00001220221480700F037FA0121880700F0A7
:1012F0001FF91C208DF80C0000208DF80D008DF8D2
:101300000E0001208DF80F0003A8FFF737FD1FBD69
:101310007047000030B504460025FFF79DFC2248C9
:10132000006840F480302049086000BF1E48006813
:10133000400C0028FAD04FF480601B494860A01E82
:10134000C4B20846406840EA8440486008464068A5
:1013500040F4803048601548006840F0320013497E
:1013600008601148006840F080700F49086000BFB5
:101370000D480068400E0028FAD00B48406840F045
:1013800002000949486005E007484068C0F3870546
:1013900005F00305022DF7D10348006A40F0010073
:1013A0000149086230BD00000010024000200240E8
:1013B0007047000010B50221480700F0BCF978B171
:1013C0000221480700F0B1F806480068401C0549B2
:1013D00008600120044908700121800700F0A2F88C
:1013E00010BD0000980000208C00002010B50221E4
:1013F000074800F0A0F950B10221054800F095F827
:101400000020044908600121014800F08BF810BD5C
:10141000000400409C0000201FB501210220FFF7BE
:10142000E7FC184800F090F840F2CF70ADF80400E7
:1014300048F69F40ADF800000020ADF80600ADF87A
:10144000020069460F4800F093F901210D4800F0B1
:1014500069F8012202210B4800F07EF901210948B8
:1014600000F066F81D208DF80C0000208DF80D00AE
:101470008DF80E0001208DF80F0003A8FFF77EFC09
:101480001FBD00000004004010B50221084800F014
:1014900052F960B10221064800F047F8054800689B
:1014A000401C044908600121014800F03BF810BDD0
:1014B000000800409C0000201FB501210420FFF718
:1014C00097FC174800F040F840F2E730ADF8040010
:1014D0004720ADF800000020ADF80600ADF802008E
:1014E00069460F4800F044F901210D4800F01AF850
:1014F000012202210A4800F02FF90121084800F0DA
:1015000017F81E208DF80C0000208DF80D008DF8C6
:101510000E0001208DF80F0003A8FFF72FFC1FBD60
:1015200000080040CA4302827047CA4302827047E3
:1015300021B1028842F00102028004E002884FF6E5
:10154000FE731A400280704710B504466848844212
:1015500008D10121C014FFF77BFC0021E014FFF744
:1015600077FCC4E0B4F1804F08D101210846FFF7B1
:101570004FFC00210120FFF74BFCB8E05D4884429E
:1015800008D101210220FFF743FC00210220FFF7D0
:101590003FFCACE05848844208D101210420FFF709
:1015A00037FC00210420FFF733FCA0E053488442BD
:1015B00008D101210820FFF72BFC00210820FFF7AC
:1015C00027FC94E04E48844208D101211020FFF707
:1015D0001FFC00211020FFF71BFC88E049488442D3
:1015E00008D101212020FFF713FC00212020FFF764
:1015F0000FFC7CE04448844208D101214014FFF7ED
:1016000027FC00216014FFF723FC70E03F48844270
:1016100009D10121C804FFF71BFC00214FF4002071
:10162000FFF716FC63E03A48844209D1012108051E
:10163000FFF70EFC00214FF48010FFF709FC56E085
:101640003448844209D101214805FFF701FC0021FB
:101650004FF40010FFF7FCFB49E02F48844208D10B
:1016600001214020FFF7D4FB00214020FFF7D0FBF1
:101670003DE02A48844208D101218020FFF7C8FBC1
:1016800000218020FFF7C4FB31E02548844208D1C7
:1016900001218015FFF7BCFB0021A015FFF7B8FB67
:1016A00025E02048844209D101210804FFF7D0FB3E
:1016B00000214FF48030FFF7CBFB18E01A4884423A
:1016C00009D101214804FFF7C3FB00214FF400308A
:1016D000FFF7BEFB0BE01548844208D101218804C6
:1016E000FFF7B6FB00214FF48020FFF7B1FB10BDE0
:1016F000002C01400004004000080040000C0040A5
:10170000001000400014004000340140004C014033
:10171000005001400054014000180040001C0040EF
:1017200000200040004001400044014000480140CA
:101730000146888C704730B5024600200023002403
:10174000158A05EA0103958905EA010413B10CB174
:10175000012000E0002030BD1AB183890B43838152
:1017600002E083898B438381704781847047000046
:10177000002202881D4B98420ED01D4B98420BD080
:10178000B0F1804F08D01B4B984205D01A4B9842BD
:1017900002D01A4B984204D14FF68F731A404B88EF
:1017A0001A43174B984207D0164B984204D04FF675
:1017B000FF431A40CB881A4302808B8883850B88AD
:1017C00003850A4B98420BD0094B984208D00E4B28
:1017D000984205D00D4B984202D00D4B984201D152
:1017E0000B7A03860123838270470000002C01409E
:1017F000003401400004004000080040000C00409C
:10180000001000400014004000400140004401402E
:101810000048014010B540F225510A4800F014F884
:1018200018B1084800F05FF8C4B240F227710548CB
:1018300000F00AF828B1002240F22771014800F0B8
:101840002DF810BD0044004070B50246002400236E
:101850000025002040F66A16B14200D100BFC1F356
:10186000421501F01F03012606FA03F3012D02D1F0
:101870009689334006E0022D02D1168A334001E0FA
:10188000968A33400C12012606FA04F41688344076
:1018900013B10CB1012000E0002070BDF0B503468B
:1018A000002400260025002040F66A17B94200D126
:1018B00000BF1846C1F3421401F01F06012707FAC2
:1018C00006F5012C01D10C3004E0022C01D11030BE
:1018D00000E014301AB107682F43076002E0076880
:1018E000AF430760F0BD01468888C0F30800704729
:1018F00010B586B00020019002908DF80D008DF893
:101900000C008DF80E008DF817008DF80F000021E7
:101910008DF8101001AA0B48FEF7F6FE0A4901984F
:10192000087008460078FF280AD1002406E00DF16F
:101930000F00005D05490855601CC4B2082CF6DB99
:1019400006B010BD00640040BF000020B6000020BB
:1019500000BFFEE7014600BF70470000002004E022
:10196000002203490A54411CC8B20828F8DB70471A
:101970001F0000200246704770B5054655480078A4
:10198000002852D154480068B0F5204F4ED2534839
:1019900081795348504A126881545048C179504A5D
:1019A0004D480068401C11544C4801784A48006872
:1019B000801C11544948417847480068C01C1154A4
:1019C0004648817844480068001D11544548008805
:1019D000C0F3072140480068401D11544148017878
:1019E0003D480068801D11543F48FFF7A1FE0446A2
:1019F000C01704EB1060C0F30721394A364800686D
:101A0000C01D11543848FFF793FEC1B2344A324822
:101A100000680830115401212F4800680930115422
:101A20002D4800680A302C49086051E02B48817924
:101A30002B48294A126881542848C179284A2648E7
:101A40000068401C11542548017823480068801C18
:101A500011542248417820480068C01C11541F4886
:101A600081781D480068001D11541E480088C0F38D
:101A7000072119480068401D11541A480278184976
:101A800015480068801D0A541748FFF751FE0446A8
:101A9000C01704EB1060C0F30721114A0E4800681C
:101AA000C01D11541048FFF743FEC1B20C4A0A484A
:101AB000006808301154FF210748006809301154AC
:101AC000054800680A30044908600120014908708F
:101AD00070BD0000BE000020AC000020E6A0002089
:101AE000DC0000209C0000200008004008B5092010
:101AF000FFF710FCFFF7CCFAFFF78EFCFFF7DCFCDA
:101B0000002004230922082100900120FEF712FD85
:101B1000FFF75EF8FEF719FFFFF7C4FB0020374917
:101B20000880374908803749087066E036480078F1
:101B3000012862D1002034490870FEF781FC334847
:101B40000078FF2810D1314840783149096888422F
:101B50000AD12E48C079FF2806D101202D490870EE
:101B600000202A49087048702A480078012831D19D
:101B7000294800682949096888422BD0284800680C
:101B800026490968884225D100250020214908708E
:101B9000214800682149096888422AD81E480068FF
:101BA000441C06E01F48015D19480B3041556D1C6F
:101BB000641C1948006809308442F3D314491A4858
:101BC000FEF71AFEFFF7CAFE134800680A301249F2
:101BD00008600EE00F48007801280AD100200D4966
:101BE0000870FF200A49C8720F48FEF705FEFFF78C
:101BF000B5FE0A4800680A49086097E732000020ED
:101C000034000020480000208C000020B600002096
:101C100014000020B50000205C000020AC00002073
:101C200038000020DC0000200064004000030306B0
:101C300001040602050003051F1C1F1E1F1E1F1F97
:101C40001E1F1E1F641C000800000020DC00000096
:101C500028010008401D0008DC00002074A20000DC
:101C600044010008AB00000000000000000008ABC9
:101C70000102030405060700010000000000000047
:101C8000000008AC000000000000000000000000A0
:101C90000000000000000000000000000000000044
:101CA0000000000000000000000000000000000034
:101CB0000000000000000000000000000000000024
:101CC0000000000000000000000000000000000014
:101CD0000000000000000000000000000000000004
:101CE00000000000000000000000000000000000F4
:101CF00000000000000000000000000000000000E4
:101D000000000000000000000000000000000000D3
:101D100000000000000000000000000000000000C3
:101D200000000001000000000000000000000000B2
:101D300000000000000000000000000000000000A3
:04000005080001915D
:00000001FF
