:020000040800F2
:1000000018070020ED01000899090008910900086F
:10001000950900089D0200083D100008000000003E
:10002000000000000000000000000000030B0008BA
:10003000BB070008000000000D0A0008F10B0008D3
:10004000070200080702000807020008070200086C
:10005000070200080702000807020008070200085C
:10006000070200080702000807020008070200084C
:10007000070200080702000807020008070200083C
:10008000070200080702000807020008070200082C
:10009000A50300080702000807020008070200087D
:1000A000070200080702000807020008070200080C
:1000B000450C0008070200080702000807020008B4
:1000C00007020008070200080702000807020008EC
:1000D0000702000807020008610F00080702000875
:1000E00007020008070200080702000800000000DD
:1000F0000000000000000000000000000000000000
:1001000000000000000000000702000807020008CD
:10011000070200080702000807020008070200089B
:10012000070200080702000807020008070200088B
:10013000070200080702000807020008070200087B
:10014000D90300080D040008070200080702000890
:1001500000F002F800F03AF80AA090E8000C82449F
:100160008344AAF10107DA4501D100F02FF8AFF27C
:10017000090EBAE80F0013F0010F18BFFB1A43F085
:1001800001031847F40E0000140F0000103A24BFBA
:1001900078C878C1FAD8520724BF30C830C144BFEC
:1001A00004680C607047000000230024002500262E
:1001B000103A28BF78C1FBD8520728BF30C148BFCA
:1001C0000B6070471FB51FBD10B510BD00F033F8B0
:1001D0001146FFF7F7FF00F037FF00F051F803B4C6
:1001E000FFF7F2FF03BC00F02BFF00000948804737
:1001F00009480047FEE7FEE7FEE7FEE7FEE7FEE709
:10020000FEE7FEE7FEE7FEE704480549054A064B20
:1002100070470000F50B000851010008180100208C
:1002200018070020180300201803002070477047AB
:10023000704770477047754600F02CF8AE460500D1
:100240006946534620F00700854618B020B5FFF7F1
:10025000DBFFBDE820404FF000064FF000074FF0F5
:1002600000084FF0000B21F00701AC46ACE8C009D4
:10027000ACE8C009ACE8C009ACE8C0098D467047DD
:1002800010B50446AFF300802046BDE81040FFF7EC
:10029000A6BF000000487047B800002000BFFEE77E
:1002A00000B589B00121092000F0D2FB01214806E8
:1002B00000F0AEFB4FF48070ADF8200048208DF8C0
:1002C000230003208DF8220008A9344800F076FAB4
:1002D0004FF40070ADF8200018208DF823000320A3
:1002E0008DF8220008A92D4800F068FA01214FF48A
:1002F000EA1000F0EFFA14208DF81C0000208DF8B1
:100300001D008DF81E0001208DF81F0007A800F0C9
:1003100045FB234800F096F804A800F03EFA0020C0
:100320008DF8160001208DF8170000208DF81800B8
:100330008DF819008DF81A008DF81B008DF8120049
:100340008DF8130003208DF814008DF81500082097
:10035000ADF8100004A9124800F01DF900208DF836
:100360000A008DF80B0001208DF80C000020ADF87C
:100370000000ADF80200ADF80400ADF80600ADF8DD
:10038000080001208DF80D00684600F077F8012282
:100390000221034800F0F6F809B000BD000C01404E
:1003A0000064004000B585B00020009001908DF8F9
:1003B00009008DF808008DF80A008DF813008DF8FB
:1003C0000B0000218DF80C106A46024800F06DF910
:1003D00005B000BD0064004000B585B0002000906D
:1003E00001908DF809008DF808008DF80A008DF84D
:1003F00013008DF80B0000218DF80C106A4602489E
:1004000000F053F905B000BD0068004000B585B0AC
:100410000020009001908DF809008DF808008DF8FB
:100420000A008DF813008DF80B0000218DF80C10D8
:100430006A460121024800F038F905B000BD00000D
:100440000068004010B504460B48844209D10121E0
:10045000480600F0EDFA00214FF0007000F0E8FAD5
:1004600008E00121880600F0E3FA00214FF08060E7
:1004700000F0DEFA10BD00000064004010B500215D
:10048000837A012202FA03F13D4A126842F0010226
:100490003B4B1A603A4A1C3212688A43384B1C3371
:1004A0001A60027BCAB9364A0C3212688A43344B4E
:1004B0000C331A604288C38842EA0343304A403210
:1004C000847A42F834300288838842EA03432C4A13
:1004D0004032847A02EBC4025360027B012A19D1B4
:1004E000274A0C3212680A43254B0C331A604288A3
:1004F000038842EA0343224A4032847A42F8343085
:10050000C288838842EA03431D4A4032847A02EB60
:10051000C4025360C27A3AB9194A121D12688A435A
:10052000174B1B1D1A6006E0154A121D12680A437C
:10053000134B1B1D1A60028932B9114A143212681A
:100540008A430F4B14331A600289012A06D10C4AE0
:10055000143212680A430A4B14331A60427B012A90
:1005600006D1074A1C3212680A43054B1C331A6035
:10057000034A126822F00102014B1A6010BD00000C
:10058000006600401AB143690B43436102E04369CE
:100590008B434361704730B5024600200023146846
:1005A00024F002041460146844F00104146000E0B4
:1005B0005B1C546804F001041CB94FF6FF74A3429D
:1005C000F6D1546804F001040CB900206CE08C7979
:1005D000012C04D1146844F08004146003E0146812
:1005E00024F080041460CC79012C04D1146844F008
:1005F0004004146003E0146824F0400414600C7A92
:10060000012C04D1146844F02004146003E0146841
:1006100024F0200414604C7A012C04D1146844F0B6
:100620001004146003E0146824F0100414608C7A41
:10063000012C04D1146844F00804146003E0146829
:1006400024F008041460CC7A012C04D1146844F01E
:100650000404146003E0146824F0040414608C782B
:10066000A407CD7844EA05640D7944EA05444D7940
:1006700044EA05540D886D1E2C43D461146824F09F
:1006800001041460002300E05B1C546804F00104C2
:100690001CB14FF6FF74A342F6D1546804F0010474
:1006A0000CB1002000E0012030BD10B500F5D8737A
:1006B00003EB01131B6803F004031372137A53B99D
:1006C00000F5D87303EB01131B6840F2FF7404EAD2
:1006D0005353136009E000F5D87303EB01131B6853
:1006E0006FF0604404EAD303536000F5D87303EB62
:1006F00001131B6803F00203537200F5D87303EB78
:1007000001135B6803F00F03937200F5D87303EBDA
:1007100001135B681B0AD37400F5D87303EB011354
:100720009B68D37200F5D87303EB01139B681C0A16
:10073000147300F5D87303EB01139B681C0C5473FE
:1007400000F5D87303EB01139B681B0E937300F540
:10075000D87303EB0113DB68D37300F5D87303EB95
:100760000113DB681C0A147400F5D87303EB011342
:10077000DB681C0C547400F5D87303EB0113DB68C1
:100780001B0E937421B9C36843F02003C36003E0D8
:10079000036943F02003036110BD00218171C17121
:1007A000017241728172C1728170C1700321017145
:1007B0000221417101210180704770472DE9F0410C
:1007C000024600250026002000230024002791F87F
:1007D00003C00CF00F0591F803C00CF0100CBCF135
:1007E000000F03D091F802C04CEA050591F800C053
:1007F000BCF1000F31D0146800202BE04FF0010C49
:100800000CFA00F3B1F800C00CEA03069E4220D1B6
:1008100083004FF00F0C0CFA03F7BC4305FA03FCFE
:100820004CEA040491F803C0BCF1280F06D14FF044
:10083000010C0CFA00FCC2F814C00AE091F803C0E5
:10084000BCF1480F05D14FF0010C0CFA00FCC2F8C6
:1008500010C0401C0828D1D31460B1F800C0BCF10E
:10086000FF0F34DD546800202EE000F1080C4FF03B
:10087000010808FA0CF3B1F800C00CEA03069E4226
:1008800021D183004FF00F0C0CFA03F7BC4305FA9B
:1008900003FC4CEA040491F803C0BCF1280F05D115
:1008A00000F1080C08FA0CF8C2F8148091F803C0A3
:1008B000BCF1480F07D100F1080C4FF0010808FA0D
:1008C0000CF8C2F81080401C0828CED35460BDE854
:1008D000F0810000F0B50A46002300240021002525
:1008E00000F00046B6F1004F02D11D4EF16901E063
:1008F0001B4E7168C0F3034583B200F44016B6F591
:10090000401F08D121F07061154E766826F07066A0
:10091000134F7E6012E000F48016B6F5801F06D1FA
:10092000032606FA05F4A14341F0706106E0460D86
:10093000360103FA06F6B14341F0706122B1460D6B
:10094000360103FA06F6314300F00046B6F1004FD7
:1009500002D1034EF16101E0014E7160F0BD000073
:100960000000014008B50121102000F071F80420BA
:10097000ADF8000010208DF8030003208DF8020070
:1009800069460248FFF71AFF08BD00000010014049
:1009900000BFFEE700BFFEE77047000070B5002112
:1009A00000230F22C47804B3154C246804F4E064D7
:1009B000C4F5E064210AC1F10403CA40447804FA92
:1009C00003F184781440214309010E4C0678A155A7
:1009D000047804F01F050124AC4005786D11AD00CA
:1009E00005F1E025C5F8004109E0047804F01F0591
:1009F0000124AC40044D0678761145F8264070BDC0
:100A00000CED00E000E400E080E100E07047000051
:100A100029B1064AD2690243044BDA6104E0034A71
:100A2000D2698243014BDA61704700000010024036
:100A300029B1064A12690243044B1A6104E0034AD1
:100A400012698243014B1A61704700000010024096
:100A500029B1064A92690243044B9A6104E0034AB1
:100A600092698243014B9A61704700000010024076
:100A700029B1064AD2680243044BDA6004E0034A13
:100A8000D2688243014BDA607047000000100240D8
:100A900010B500F0AFF810BD1FB501210846FFF7F3
:100AA000B7FF4FF0804000F0FBF89820ADF804004D
:100AB0002320ADF800000020ADF80600ADF80200DC
:100AC00069464FF0804000F0F9F90121880700F0F5
:100AD000D5F801220221480700F0E7F90121880733
:100AE00000F0D2F81C208DF80C0000208DF80D00CD
:100AF0008DF80E0001208DF80F0003A8FFF74EFFC0
:100B00001FBD704710B500F001F810BD0CB50020F6
:100B1000019000903448006840F480303249086009
:100B200000BF3148006800F4003000900198401C7C
:100B30000190009818B90198B0F5A06FF1D12A483A
:100B4000006800F4003010B10120009001E00020A6
:100B500000900098012844D12448006840F010001B
:100B6000224908600846006820F003000860084633
:100B7000006840F0020008601B4840681A4948605D
:100B80000846406848600846406840F48060486015
:100B90000846406820F47C1048600846406840F4ED
:100BA000E81048600846006840F08070086000BFA8
:100BB0000D48006800F000700028F9D00A4840682D
:100BC00020F00300084948600846406840F00200F1
:100BD000486000BF0448406800F00C000828F9D1C4
:100BE00001E000BFFEE70CBD001002400020024003
:100BF0007047000010B51048006840F001000E4931
:100C00000860084640680D4908400B49486008469E
:100C100000680B490840084908600846006820F44D
:100C2000802008600846406820F4FE0048600020EC
:100C30008860FFF767FF10BD001002400000FFF85A
:100C4000FFFFF6FE10B50221480700F01DF978B14C
:100C50000221480700F015F806480068401C0549C5
:100C600008600120044908700121800700F006F89F
:100C700010BD0000A80000209C000020CA43028292
:100C80007047CA430282704721B1028842F00102D4
:100C9000028004E002884FF6FE731A40028070471B
:100CA00010B504466848844208D10121C014FFF7FA
:100CB000DFFE0021E014FFF7DBFEC4E0B4F1804F5B
:100CC00008D101210846FFF7B3FE00210120FFF7FC
:100CD000AFFEB8E05D48844208D101210220FFF751
:100CE000A7FE00210220FFF7A3FEACE05848844293
:100CF00008D101210420FFF79BFE00210420FFF70B
:100D000097FEA0E05348844208D101210820FFF754
:100D10008FFE00210820FFF78BFE94E04E488442AE
:100D200008D101211020FFF783FE00211020FFF7DA
:100D30007FFE88E04948844208D101212020FFF746
:100D400077FE00212020FFF773FE7CE044488442B8
:100D500008D101214014FFF78BFE00216014FFF73A
:100D600087FE70E03F48844209D10121C804FFF7A3
:100D70007FFE00214FF40020FFF77AFE63E03A483F
:100D8000844209D101210805FFF772FE00214FF4CA
:100D90008010FFF76DFE56E03448844209D10121EE
:100DA0004805FFF765FE00214FF40010FFF760FED5
:100DB00049E02F48844208D101214020FFF738FE46
:100DC00000214020FFF734FE3DE02A48844208D14C
:100DD00001218020FFF72CFE00218020FFF728FE54
:100DE00031E02548844208D101218015FFF720FE1B
:100DF0000021A015FFF71CFE25E02048844209D100
:100E000001210804FFF734FE00214FF48030FFF782
:100E10002FFE18E01A48844209D101214804FFF747
:100E200027FE00214FF40030FFF722FE0BE01548AB
:100E3000844208D101218804FFF71AFE00214FF4F3
:100E40008020FFF715FE10BD002C0140000400407B
:100E500000080040000C004000100040001400405A
:100E600000340140004C014000500140005401405A
:100E700000180040001C00400020004000400140DD
:100E8000004401400048014030B5024600200023E4
:100E90000024158A05EA0103958905EA010413B1C6
:100EA0000CB1012000E0002030BD1AB183890B4352
:100EB000838102E083898B4383817047002202880B
:100EC0001D4B98420ED01D4B98420BD0B0F1804F75
:100ED00008D01B4B984205D01A4B984202D01A4BAF
:100EE000984204D14FF68F731A404B881A43174B20
:100EF000984207D0164B984204D04FF6FF431A4051
:100F0000CB881A4302808B8883850B8803850A4B24
:100F100098420BD0094B984208D00E4B984205D00E
:100F20000D4B984202D00D4B984201D10B7A0386AB
:100F30000123838270470000002C014000340140EF
:100F40000004004000080040000C00400010004079
:100F500000140040004001400044014000480140AE
:100F600010B540F225510A4800F014F818B10848AD
:100F700000F05FF8C4B240F22771054800F00AF8AB
:100F800028B1002240F22771014800F02DF810BD71
:100F90000044004070B502460024002300250020D4
:100FA00040F66A16B14200D100BFC1F3421501F00C
:100FB0001F03012606FA03F3012D02D1968933405F
:100FC00006E0022D02D1168A334001E0968A3340B2
:100FD0000C12012606FA04F41688344013B10CB141
:100FE000012000E0002070BDF0B50346002400267B
:100FF0000025002040F66A17B94200D100BF18460C
:10100000C1F3421401F01F06012707FA06F5012C6F
:1010100001D10C3004E0022C01D1103000E014307A
:101020001AB107682F43076002E00768AF43076003
:10103000F0BD01468888C0F30800704700BFFEE796
:10104000014600BF70470000FFF722FDFFF724FDB7
:10105000FFF726F9FFF786FC0020044908800449C1
:1010600008800449087000BFFEE70000320000203D
:1010700034000020440000209810000800000020E8
:10108000B80000008C01000850110008B8000020D2
:1010900060060000A8010008AB000000000000008E
:1010A000000008AB0102030405060700AC000000C5
:1010B00000000000000008AC00000000000000007C
:1010C0000000000000000000000000000000000020
:1010D0000000000000000000000000000000000010
:1010E0000000000000000000000000000000000000
:1010F00000000000000000000000000000000000F0
:1011000000000000000000000000000000000000DF
:1011100000000000000000000000000000000000CF
:1011200000000000000000000000000000000000BF
:1011300000000000000000000000000000000000AF
:10114000000000000000000000000000000000009F
:04000005080001ED01
:00000001FF
